:400000000010002011000000AD420000AD42000010B504F059F9C046F0B5474680B472B6564C0025A0222600920055480021013506F0C1F80636032D0FD06B005B195B0099
:40004000E25AE31858880021000410430135B28806F0B1F80636032DEFD1210080221431484806F09FF8FF23474D00262F0038359846AC46454818374346C2B29843002A6B
:400080000ED0013A7300D2B2013696197400634464441A7859781218023311709C42F8D1BD4201D001CFE7E78022394B52001A80384BFF3A1A70384A384B8A211A60384A2B
:4000C000384BC9051A609923374A1B041360374A20251160364A37491360C022364B92021A603C220B78354C9343283A13430B701623334A182011780B4313706022314B9A
:400100001A60314A314B1A604322314B1D60314B1A60314A314B1A6080222368D2021343236004F01BF922682D4B2E49134023602D4A2E4B09201A6030222D4B1D602D4B8C
:4001400000251A602C4B203A1A6080222B4B12061A602B4A2B4B25601A602B4A2B4B1A602B4A2C4B1A6004F0BFF9092004F0C8F9294B1D6004BC9046F0BDC046946C000072
:4001800000300F4080320F40146D000001000F4000600F4002600F40000099030000014003EE00000C00014000500F4008500F4030500F4001700F4038500F4000010B407B
:4001C00000700F400000044000101B00080004401800044000030440966D080008030440FFFFFBFF1D4600000600008004010B400C020240200202403002024008010B40DB
:4002000001000080000002401000008040000240BF5D0080800002400C020B4010B5064C2378002B07D1054B002B02D0044800E000BF0123237010BD480100200000000058
:400240005C640000084B10B5002B03D00749084800E000BF07480368002B00D110BD064B002BFBD09847F9E7000000004C0100205C640000C000002000000000436810B563
:400280000400002B00D09847236820009B69984710BDC04610B52C3001F0FAFE10BDC04670B596B002AC0D0006004F220021200005F081FF52232370413B63706F33A370C3
:4002C0007F3323716B78B189E3712B78B0682372AB7822006372EB78A3722B79E3726B792373AB7963730023EB71F37D0193B37D00934F2303F036FC16B070BD08B4024B1F
:400300009C462C3808BC6047A102000010B5040084B02C3001F0BCFE432303AA1370413B5370E37DA1890193A37D0093A068022303F018FC6368002B02D0984704B010BD63
:4003400022007432137053702300FF2276331A70012379342370F1E710B52C3001F02AFE10BDC04670B5050019200C0004F0F8F8002004F03BFA0220284304F061FA200017
:4003800004F05EFA192004F0EBF8012004F02EFA70BDC04610B50400192004F0E1F8002004F024FA04F074FA200004F049FA002004F046FA192004F0D3F804F053FA002802
:4003C000FBD0002402E004F047FA040004F04AFA0028F8D1012004F009FAE0B210BDC04610B5F820FFF7D6FFC02318400400402815D021D9802805D0C02802D10122134B66
:400400001A7010BDD820FFF7C5FF83070CD4C921D820FFF7A7FF02220C4B1A70F1E7D820FFF7B8FF8307F2D4CB21D820FFF79AFF0322064B1A70E4E70028E2D1D121D820F6
:40044000FFF790FF014B1C70DBE7C046D003002070B5060004F04CFA0422204B882019681F4C11431960596801250A4318215A60FFF778FF20217820FFF774FF002178207E
:40048000FFF770FF03E0013CA4B2002C23D06820FFF780FF0542F6D0C121D820FFF762FF6021D020FFF75EFF0421E820FFF75AFF0424E820FFF76EFF0442FAD03000FFF7FE
:4004C0008FFF2021C820FFF74DFF80200121FFF749FF002070BD01204042FBE764010020FFFF0000F8B55F4656464D464446F0B404F042FA62B604F0E5F8D04804F068F979
:40050000CF480830FFF7A4FF431C00D18BE2CD4804F05EF9CC4BCD4D9B4640232C009A4601339946CA4E7034C54F0837380001F04BFC2B0044335B7D002BF7D00021200016
:4005400001F034FD892800D83EE1C24803F0EAFD0021200001F02AFD0100300003F0E2FDBD4803F0DFFD0121200001F01FFD0100300003F0D7FDB94803F0D4FD022120004E
:4005800001F014FD0100300003F0CCFDB44803F0C9FD0321200001F009FD0100300003F0C1FD0821200001F0F5FC002800D103E1AC4803F0B7FD0821200001F0EBFC0100B5
:4005C000300003F0AFFDA84803F0ACFD0921200001F0E0FC0100300003F0A4FD0821200001F0D8FC5B4652469B5C834200D10FE20821200001F0CEFC09210700200001F0B9
:40060000C9FC2B00B6331F702B00B73318702B000122BD331A70442308212000984601F0B9FC5B46524609219854200001F0B2FC5B464A4610219854200001F093FCA844D1
:40064000071E06D0894803F06DFD404601F09AFD6AE70C21200001F085FC002800D0C8E10D21200001F07EFC002800D0B1E10E21200001F077FC002800D09BE10F212000D8
:4006800001F070FC002800D085E10021200001F069FC002800D06BE10121200001F062FC002800D051E10221200001F05BFC002800D036E10321200001F054FC002800D0D2
:4006C0001CE10A21200001F04DFC002800D011E10621200001F046FC002800D006E10B21200001F03FFC002800D0FBE00721200001F038FC002800D0C4E00421200001F0AB
:4007000031FC002800D0C7E00521200001F02AFC002800D0CAE01121200001F023FC002800D0D4E043235A46D35C002B00D1FBE69623EB5CDB0979D09A23EB5CDB0975D074
:40074000012300277A1C9046002B09D04746022F00D1E9E69A23EB5C7A1CDB099046F5D1434803F0DFFC4146300003F0DBFC414803F0D8FC33230F220837BF00EF19443714
:40078000F95C0133FB5C300013401B02194303F0C9FC394803F0C6FC4146300003F0C2FC344803F0BFFCB98E3000090903F0BAFC324803F0B7FCC9E70921200001F0EAFBBB
:4007C000002800D0F4E609E70021200001F0EEFB742800D8B9E60121200001F0E7FB892800D9B2E60121200001F0E0FB742800D8ABE60221200001F0D9FB892800D9A4E6A3
:400800000221200001F0D2FB742800D89DE60321200001F0CBFB892800D996E60321200001F0C4FB742800D88FE6BAE6144803F079FC9623EB5CDB0983E7C046D0670000F3
:40084000640100200468000064020020E4010020B0680000BC680000CC680000D8680000E8680000F86800000069000018680000AC680000FC680000B4680000B8680000FF
:40088000146800006A4803F04DFC0421200001F069FB002800D137E7664803F043FC0521200001F05FFB002800D134E7624803F039FC42225B46995C01234B40594620005E
:4008C0008B54112101F04EFB002800D12AE75B4803F028FC43225B46995C01234B4059468B5422E7564803F01DFCFFE6554803F019FCF4E6544803F015FCE9E6534803F0AD
:4009000011FC2A000023B83213702A00FF21B93211702A00BA3213702B000122BD331A70CFE64B4803F0FEFB2B00FF22B8331A702B00143AB9331A702B00E73ABA331A7032
:400940002B00033ABD331A70B4E6424803F0EAFB2A000023B83213702A00B93213702B00FF22BA331A702B00FE3ABD331A709AE6394803F0D7FB2B00FF22B8331A702A00F6
:400980000023B93213702A00BA3213702B000122BD331A7080E6314803F0C4FB2A000023BB3213702A00BC3213702B000122BD331A706AE62A4803F0B5FB2A000A23BB32EB
:4009C00013702A00BC3213702B000122BD331A7054E6244803F0A6FB2B00FF22B6331A702B000022B7331A702B000132BD331A703DE61D4803F096FB2B00B6331F702B00A5
:400A0000FF22B7331A702B00FE3ABD331A7027E60921200001F0BEFA5B464A469B5C834200D0E5E5F7E5114803F0D2FEFEE7C046846800008C68000094680000A0680000F6
:400A40007C680000746800006C680000646800005C680000546800004C68000040680000386800002C68000020680000EC67000070B5114C0834200000F0F2FA0F4D2100F4
:400A80004435280002F0ACF90D4C29002000250001220C4B443001F0F3FB0B4B70352800236701F0F5FA094B280063642C33236701F0EEFA70BDC04664010020640200209A
:400AC000E401002008690000846700009067000000207047002070477047C04600207047002070470120704710B503F015FD10BD10B503F067FF074B5A681860904207D2C1
:400B00009A6801329A60586013049A1A101810BD9A68F8E7D4030020F0B57F240F00A7430FD1072B0BD8002A22D10500012413352E78002E07D001340735102CF8D1380018
:400B4000F0BD0027FBE7002916D007263140C900002A1DD04023C57919430135EAB2C27132401143E3001C1B00190173CFB2E6E7C479072CD9D1E2E7E3001C1B002A0BD073
:400B8000412304192373C37941270133C371D6E73340B1431943E5E70123001903730127CDE7C04670B5050019200C0003F0D8FC002003F01BFE0220284303F041FE2000F0
:400BC00003F03EFE192003F0CBFC012003F00EFE70BDC04610B50400192003F0C1FC002003F004FE03F054FE200003F029FE002003F026FE192003F0B3FC03F033FE0028DC
:400C0000FBD0002402E003F027FE040003F02AFE0028F8D1012003F0E9FDE0B210BDC04670B5060019200D00140003F099FC002003F0DCFD0220304303F002FE002D15D0C9
:400C4000013DEDB20135651903F014FE0428FBD02078013403F0F4FDAC42F5D1192003F07FFC012003F0C2FD280070BD2500F5E7030010B5083300290BD002000123133240
:400C800014788C4207D00133DBB20732102BF7D10023180010BDDA000830D31AC318F8E7F0B55F4656464D464446F0B4CB0091B00E935B1AC218127B834653075B0F0D91EA
:400CC0000B93530600D443E1012203000992043307320C930A921B0AF7321A400F93079208E003000133DBB20993102B00D102E1DB000A935B460A9A09980B9C121A99189D
:400D00000B7B9B065B0FA342EBD15A44137B097B5B075B0F08934B0600D40EE101230293073303930C9B5F461A0C04921A0E0592FF221A40069208E003000133DBB20293B2
:400D4000102B00D1B3E0DB000393039A0298089C121AB9180B7B9B065B0FA342ECD1BA18137B097B5B075B0F01934B061BD5012399460733009301E0DB0000934A46009B89
:400D800001989A1AB9180B7B9B065B0F834221D04B460133DBB29946102BEDD1FB79019A934200D1C5E00121029A039B9B1AFB18597369460022097E1A739A7319721A00C3
:400DC0006B461B7F53726B461B7C93726B461B7DD372BAE7BA18137B097B5B075B0F9B464B0614D5082301259A4601E0EB009A4653465A1BB9180B7B9B065B0F5B451DD0C2
:400E00000135EDB2102DF1D1FB795B456FD04A460121009B9B1AFB18597369460022097E1A739A7319721A006B461B7F53726B461B7C93726B461B7DD3729FE7BA18137B42
:400E4000097B5B075B0F98464B0611D50124082600E0E600331BFB181B7B9B065B0F43451CD00134E4B2102CF3D1FB7943451AD0534601215B1BFB18597369460022097E65
:400E80001A739A7319721A006B461B7F53726B461B7C93726B461B7DD372A9E721003800FFF7FEFED6E74346013BFB71E0E7FB79089ABB46934246D00121099A0A9B3020BC
:400EC0009B1A5B44597369460022091809781A739A7319721A003C216B465B181B7853726B461B7C93726B461B7DD37202E75B46013BFB718BE75B460B9ADB7993422BD05E
:400F00000D9A0E9B01219B1A00225B441A739A731A0059730C9919720B0A53720B0C93720B0ED37211B03CBC90469946A246AB46F0BD019B013BFB7135E70C9B1A0C1B0E7B
:400F400004920593B8E75A46089B013BD371B3E7030004330C93D3E75A460B9B013BD371CEE7C046F8B556465F464D464446F0B40600412945D001220300904613331A782B
:400F80008A420CD001229446E04442460733102AF5D13CBC90469946A246AB46F8BD43464246DB0099469B1AF218127B57077F0F530613D50124082500E0E5002B1BF318BF
:400FC0001B7B9B065B0FBB4245D00134E4B2102CF3D1F379BB4201D1013FF77142464B469B1A0022F31801211A739A731A0004361E725973330A5372330C360E9372D67257
:40100000C7E77C23041D9946230E98460123250C9C46FE330200270A1D401C408144A2460020AB46133240391F40634655465370CB005B1AF318107090701C001D725F72D7
:401040005B46A37243460732E37201319145ECD10023F3719DE721003000FFF721FEADE7254B012203600023C3710373837303710833437183794273934313403C22F0B5E0
:4010800013435F4656464D46444683717C23F0B4051D99462B0E984601232E0C9C46FE332F0A856002001D401E4001210024AA46B346133281441F40634656465370CB0076
:4010C0005B1AC318147094701D001E725F725B46AB7243460732EB7201314A45ECD1B8230022C254054B11321A703CBC90469946A246AB46F0BDC04674690000E4030020F2
:4011000070B500290CD004000123133425788D422DD00133DBB20734102BF7D1002070BD083006000020002EF9D071783578B378090229431B040B431900F3781B060B4374
:40114000EDD071790029EAD0187890420DD00139C9B2013148004118591802E01878904203D003338B42F9D1D8E71800D7E7D9000830CB1AC618D5E770B5002B23D0002938
:401180000FD108300400D620002C09D000202171190A23706170190C1B0EA170E370627170BD0500012413352E788E4206D00134E4B20735102CF7D1D620F1E7E500083079
:4011C0002D1B4419DFE7D820EAE7C046F8B506000C001F0000290CD00100012313310878A0423CD00133DBB20731102BF7D1D620F8BD05000835D620002DF9D069782B78A2
:4012000009021943AB78D7201B040B431900EB781B060B43ECD021003000FFF771FF03003860DB20002BE3D09A7892080F2A23DC01239340069A013B13802100E020FFF78D
:40124000B1FCD820FFF7C6FCAB79002B0DD1F92301001940D820FFF7A5FC0020C8E7DD00EB1A35000835ED18C5E7B823F15C02230B431843C1B2EDE70F22D9E7F0B54446AE
:401280005F4656464D46F0B44C781F00631E87B00E009046DA203F2B06D907B03CBC90469946A246AB46F0BDFFF722FC5C4A0300944663440393B3784021DB0700D5403182
:4012C000E820FFF76FFC002F00D1A6E06A46A3B20493D382202399460F23B2469B466B46DD8A049BBB4200D93D1CADB2EEB2109A31001020FFF794FC31003820FFF752FC9E
:40130000534619784B461943C9B2F020FFF74AFCC820FFF75FFC0306FAD58021C820FFF741FCF820FFF756FC5C4604400BD10024109B7F1B9C46AC446346BFB21093002FB9
:40134000CDD1564612E00023029301935346B2461E00FFF7CDFB039BC01A01D4B246E7E7062C10D00E2C51D0042C45D0F820FFF731FC400901220300B07813409043184370
:40138000B070200089E7F820FFF724FC012340094340012001221840B378402193430343B3701A4200D04031E820FFF7FBFB00213820FFF7F7FB109B10201978FFF7F2FBB7
:4013C00051463820FFF7EEFB4B463178F0201943C9B2FFF7E7FBC820FFF7FCFB0306FAD58021C820FFF7DEFBF820FFF7F3FB5C460440AED1B2469AE74246029B01339BB2A1
:401400000293002AD3D04345D1D1AFE7019B0133DBB20193032BCAD1A8E70024A6E7C0468813000070B50A241E00002384B06C4423800393009403AB0500FFF7C7FE002814
:4014400007D1089B22880399009328003300FFF715FF04B070BDC046F0B557464E464546E0B4884615009946FFF742FB224B0027C41800239A4643462B431D000F23002603
:401480009846FFF735FB001B1BD52900F020FFF789FB04E0C820FFF79DFB030617D4FFF727FB001BF6D4F820FFF794FB434603409A46042B17D00E2B03D10136F6B2032EA3
:4014C000DFD150461CBC90469946A246F0BD8021C820FFF767FBF820FFF77CFB434603409A46042BE7D14B460137BFB2002BC8D04F45C6D1E5E7C04688130000F0B55F46AC
:4015000056464D4644469B46F0B487B010AB20CB02921A78009103925A4601904B7812880493924600230A0059460B80937810219B0700D51031E820FFF734FB53466A4686
:401540001375137D0593009B00211A780198029BFFF782FF0700062863D0002800D08CE0C820FFF737FB0423034200D187E03020FFF730FB83B2060098469A4501D2D046EE
:40158000059E5B4652461B88D31A1BB21C1C002B45DB24B2B44200DD3400E3B21920994602F0DEFF002003F021F9082003F048F903F058F90028FBD003F04EF9002C12D00E
:4015C0004B46013BDBB201332C00ED18002003F037F903F047F90028FBD003F03DF920700134A542F2D1192002F0BAFF012003F0FDF80421C820FFF7D5FA5B465A461B8888
:4016000043449BB21380049A964221D39A451FD9039B002B97D01800FFF766FA93E70024B7E7F820FFF7D6FA01230209534001220220009913405A008B78834313438B70E3
:401640001021184200D01031E820FFF7ABFA7AE7F820FFF7BFFA0221B946C3060098DB0F5A0083788B4313438370484607B03CBC90469946A246AB46F0BD8146F5E7F023FC
:401680009946F2E7F0B5474680B484B01E000AAB80CB0A241B786C449846002323800393009403AB0500FFF791FD002808D14346228803990193009733002800FFF71EFFDB
:4016C00004B004BC9046F0BDF0B55F4656464D464446F0B48BB01C0014AB1B789346039315AB1B7802AA9A4616AB1B789446994617AB1B880E25984618AB1B88654402932E
:4017000019AB1E8800235A462B800793009507AB0700FFF75BFD002806D00BB03CBC90469946A246AB46F0BD6B461B7B08AA5370534693704B46D37043469380029B082121
:401740002030D38014709846FFF76AFA2B885A4610213800FFF780FE0028DED17F231A9A9C43002A65D0002C52D00223079A91780B4393704346002B2ED00023994633001A
:401780004646B8461F0006AC4B4627802A8801931A9B0799009340462300FFF7AFFE06281CD00028B9D11B9B002B0DD01B6802AA1B6894469A46029B21889B1B5382122320
:4017C0001A9A63441B98D0472388F61AB6B29F4216D8002ED8D14746A02113E0079BF2309A46FFF7F7F901234009584003405800534602229B789343524603439370C3E75F
:401800004746A0212B885A463800FFF725FE84E70123079938008A7813438B701A9B2A8800933300FFF72AFD002800D075E78021E8E7002CFBD0A021E4E7C046F0B55F461B
:40184000444656464D46F0B483B099460CAB1B7880469B468B009A4613001E339B001700002401930DE01D684A465B463900A8470D2826D1022C40D85730FFF735F90134B2
:40188000E4B245465544A86F2D4A03685E689642E9D05B464A463900B047E02846D1002F1BD101210830FFF77DF96620FFF71CF9A86F4A46036839001D685B46A8470D2897
:4018C000D8D005000024002818D1200003B03CBC90469946A246AB46F0BD4346019AD058184A03685B69934202D1A86F0368BAE749469847A86F0368B5E70500002F0CD0BC
:4019000043461E37BF00F8580E4A03682C005B699342DAD049469847D7E70121E820FFF741F96620FFF7E0F82C00CEE70D2803D1022CA1D90D24C8E70028D6D00400C4E7BF
:40194000D10A0000D90A000030B589B005930493012300240C9D02930533009307940695039401947A33FFF7AFFE09B030BDC046F0B54F46464698460023C0B499B0160013
:40198000079308AA0393023306929946092202930627434605920492019300978023320004000D00FFF790FE002814D1209B3200079308AB0693402305936B465B8C2900C5
:4019C00004934B460293434603900193009780232000FFF779FE19B00CBC90469946F0BD10B588B000240193052307940694059404940394029400930023FFF765FE04003D
:401A000096204000FFF770F8200008B010BDC046F0B544465F4656464D469C460300F0B4083383B00400002B41D0457A077A807A2D023D43000428430500E07A0006284345
:401A4000D725002811D06046A073C8090CD1072A0AD8270013373E0001303578002D0CD0013007361028F8D1D425280003B03CBC90469946A246AB46F0BD002919D007269C
:401A8000B046314016404246C90091430E43C100081A20180673002EE6D0390001220878B0420DD00132D2B20731102AF7D1D625DBE7C200101A0122201802730126ECE76C
:401AC000D1008A1A9B18002BF1D0624600219A71200033000022FFF783FF81460028C4D001239846412E41D03B78B34208D001239C46E04443460737102BF5D14D46B4E76C
:401B000043464246DB009A469B1AE218127B57077F0F530611D50125082600E0EE00731BE3181B7B9B065B0FBB421AD00135EDB2102DF3D1E379BB4242D0424653469B1A28
:401B40000022E31801211A739A731A0004341C725973230A5372230C240E9372D4724D4683E729002000FFF79BF8D8E7201D7B339A46030E984601239C46FE33060A050CA2
:401B800018400122002183461D40A2441E40019563465D467B70D3009B1AE3183970B97018001D725E726B461B790737837243460132C3725745EBD100234D46E37154E780
:401BC000013FE771B9E7C046F0B556464D4644465F4689460821F0B4060093B098460CAB5970343192469970002231001A70D620083177D0717A347AB57A090221432D0460
:401C000008002900F57A01432D060D43190A33727172190C1B0EF3724346B373122305930493113B02930DAC0533B172009307927A3306940392019200213000FFF744FDB4
:401C40002B0A357273722B0C2D0EB372F572002848D1370023897837099363893D000A9323790B936379002408934A4B9B462868002810D0026813695B454AD1136A4649E0
:401C80008B4252D1936945498B425CD1D369444A934200D075E00134E4B20435102CE6D13D4B00249B463B4D3868002825D002681369AB4233D1136A5B453DD193693749A5
:401CC0008B4256D1D369364A934212D143464A460093210053463000FFF7B0FDF7230340D12B0AD013B03CBC90469946A246AB46F0BD0B9998470028E8D00134E4B20437B1
:401D0000102CD1D14346524649463000FFF780FEE8E798470028BED128680268AEE798470028EAD138680268C5E7089998470028B1D028680268A5E7089998470028C5D019
:401D400038680268BAE70A9A0999984700281DD043464A460093210053463000FFF76EFDD128BFD10134E4B20435102C00D07EE796E70A9A099998470028BED13868026826
:401D8000A0E70B9998470028E2D184E7286802687CE7C046D50A0000E50A0000DD0A0000E10A000010B588B000240193092307940093069405940494039402940023FFF7B0
:401DC00083FC08B010BDC046F8B546464F46C0B4804602F0B1FD002800D178E05F4B1B78012B00D185E0002B00D18CE0022B34D0032B00D083E0012399460F22584F3B78B9
:401E00009343102B00D1A1E04646454678363400B8352068002802D00368DB6898470434AC42F6D13B78402B00D17DE029D8202B16D0302B1BD0112B1FD10022B8234146E9
:401E4000CA543068002802D003689B6898470436AE42F6D112233B700FE000239946CCE7FEF746FE7B68C01A07D430233B700121E820FEF797FE40233B700CBC90469946E2
:401E8000F8BD512B0FD0802B14D0502BF5D1C820FEF7A0FE4306F0D551233B70FEF728FE14307860E9E7FEF723FE7B68C01AE4D480233B704B46002200214046FFF784FEE8
:401EC00000282BD0D228D8D0A0233B70D5E7C830FEF780FE0021830603D54046FEF780FA2021C820FEF75EFE1C4B1B78012B00D079E713231A4F3B700023994684E7002367
:401F0000174F994680E70F22154F3B789343102B07D011233B700023994675E790233B70ABE7002399466FE7E820FEF753FEC307A3D4D820FEF74EFE082301001943C9B275
:401F4000D820FEF72FFE50233B7096E7FEF7D0FD2023C83078603B7056E7C046D0030020E40300200A4B30B55A5C4424012343259340025B415D12020A4311009943415559
:401F80001340090A0153581E8341D8B230BDC04680690000082906D00023092901D018007047037BFBE7C37AF9E7C046411808797047C04670B50400012952D9002A50D0E9
:401FC0001378012B58D0112B00D070BD0329FCD9CB1EDBB2D51C04303C223B2B00D81A00290004F0DFF8A368226C1B0212021B0A120A934235D0190091430A0043202254CE
:40200000120A01302252226C0021120E1206134323640F23227A1A40072A36D00E3B93424941CBB2511E022901D802210B43D11E022901D804210B43053A022A01D80822DF
:4020400013434E20225C93420BD0190091430A000F26432532401100625DB2430A43625523544D23E35C002BAFD02100236846311B6820009847A8E74B1EDBB2551C043000
:402080003C223B2BACD81A00AAE70123CFE7C0467F23037143718371C371C37A30B51B068360036C26251A0E0023802112060264C3720373445D49420C4344550435445D78
:4020C000120E0C4344550535445D0C4344550435445D0C4344550535445D0C4344550435445D2143415540240821017201550F218A43343142544E228354073A8354013AD4
:40210000835404328354013A8354013A835404328354013A83540232835430BD30B50579002D18D01388002B19D00C6801E0002B15D0437924785B1B0568EC540379013BC1
:40214000037113880C68013B9BB2013413800C600579002DEBD143790371012030BD0020FCE7C046036810B5002B02D0FFF7D6FF10BD0020FCE7C0467047C0467047C04629
:402180007047C04610B503000400027D82B00132D2B202758189283000901833A06801F0F3FD236820009B68984709222A23E25402B010BD70B52A25435D82B00400002B62
:4021C00012D180684633C35C002B09D0437A002B06D1637D002B03D12522A35C002B2CD0012322691A4201D102B070BD2600250026361635227DA18901930095330001F0A9
:4022000019FD0120FEF770FC0023227DA1890193A0683300009501F00DFD237D012001332375FEF761FC227D2B00A189A06801F039FD04222A23E254D6E701214172A15489
:40224000418B236123752300143A26330092A181002201F0C3FC02236355C5E700232522437583540532036183540368034ADB6910B5934200D110BD9847FCE7812100009A
:4022800070B5184C81600460002909D00D00002464352E68002E1FD001340435042CF8D1114C242508340460002444552435C46104624A550B6170222623C2540133C4543B
:4022C00001320133C2540133C454043B4475C45405330461C45470BD1834A4000C196060DEE7C0461C6A0000BC690000242210B5815C84B00300012910D90021815470310F
:402300000F226A441170DC7D9989986801949B7D0093012301F026FC04B010BD4C321143EEE7C0462A2370B5C35C82B00400092B21D85A4A9B00D3589F4603699B061AD5DE
:402340000022462183685A5402315A5401234375036853491A698A4200D09AE04268002A01D0904723689B694E4A934200D092E001222A23E25402B070BD03691B06FAD543
:402380000300027D81890132D2B20275263016330090A06801F0F8FC05222A23E254EAE703695B07E7D50300027D16330132D2B202758189806801F075FC03222A23E2544D
:4023C000D9E703699B07D6D5FFF790FF0120FEF78BFB13202300227D28330132D2B222750090A189A06801F0F9FB07222A23E254C1E703699B07BED5FFF778FF06222A2327
:40240000E254B8E703691B07B5D58189806801F0D9F901235B42A3812A2200232361A354A9E70369DB06A6D50500060001231835027D81892836019300953300806801F03B
:40244000F9FB0120FEF750FB0023227DA1890193A0683300009501F0EDFB237D012001332375FEF741FB227DA1892B000AE003695B0600D47FE70300027D81890132D2B2F8
:4024800002751833A06801F00DFC08222A23E25471E790476CE72000984769E7946900007D0200007D210000F0B50400806883B0437A0D00002B03D14723C25C002A06D1AA
:4024C000A1892B78CAB29A421AD003B0F0BD627D002AF5D12521625C002AF1D12E7A022EEED16E7B2F7B36023E43112EE8D1C254463B43726354418B2933A181E254E0E789
:4025000020236A780E1233439A42DED1EE79AA7933021343012B07D02823E35C934228D02000FFF7FFFED0E72A7A012AF8D0032A5BD0022A00D17DE0052A3BD0042A00D19A
:402540008CE0062A00D19FE0072AE9D12B7BA27D9A4200D1F2E0227E9A42E1D16A7B637E9A42DDD16B7A22692375802313432361D6E72923E35CB342D2D12B7AA12BCFD14C
:4025800023687A4A5B692E79934200D0E7E06B7A012B00D1DEE0022BC2D1206A0028BFD002680A35B31E00951568DBB200222100A847B5E76B7C2A7C1B021343B0D12622A4
:4025C0002B7BA25C9A4200D19AE02822A25C9A42A6D129236A7BE35C9A42A1D16B7A226923752023134323619AE76B7C2A7C1B02134395D1EB7CAA7C1B02134390D1262202
:40260000AB7BA25C9A4200D187E02822A25C9A4286D12923EA7BE35C9A4200D080E76B7A226923752B7B23766B7B637640231343236175E76A7B297B12020A43112A40D010
:40264000132A00D06CE76B7A22692375AB7B2376EB7B637610231343236161E722322B7BA25C9A4237D02822A25C9A4200D057E729236A7BE35C9A4200D051E723006A7A37
:40268000183301F045FB4BE720322B7BA25C9A422CD02822A25C9A4200D041E729236A7BE35C9A4200D03BE723006A7A183322750093103301F094FB236820009B68984778
:4026C0002EE76A7A2275AA7BA275EA7BE27522691343236124E727226E7BA25C9642C2D123006A7A163301F013FB19E727226E7BA25C9642CDD123006A7A16332275D7E7AD
:402700002722697BA25C914200D05EE76B7A2269237502231343236102E72722E97BA25C914200D071E76B7A226923752B7BA3756B7BE375042313432361F1E6697BE27DD1
:40274000914200D007E76B7A22692375082313432361E5E6E069002800D021E7E0E62A00711EC9B209322000984710E7792100005023C05C7047C0467923C05C7047C04621
:40278000E039080041424841C0B27047144B994210D04369002B04D0124B002099420FD07047038B0020002BFAD00E4B00209942F6D105E00C4B9C46624450425041EFE795
:4027C0009A239B009A4209D0084B9A4206D0084B9C46624453425341D8B2E1E70120DFE75C0A00004C05000018DEFFFF2F0400002BFCFFFFF0B5454657464E46E0B406008C
:40280000FF270A25223637400400B84684B06D4429800392002900D181E03023E35C042BF8D8854A9B00D3589F46A27A607AE37A120202431B0413431A00237B02271B06C6
:402840001343236101223023277267752775E25420002A0003A91030FFF784FC00285ED03121A368227B1B0A12061A431378635451783222A1544246300AA072300CE07275
:40288000300E6272207330220320A0543200042902D1002733202754023BDBB2237222616375237504223023E254042941D0052900D185E0022900D174E0237F002B00D152
:4028C000AAE0012B00D0A0E0E18B002915D02B88002B24D0039A013989B2501C06E04A1E92B20130002B00D19EE01100013B9BB20029F4D1E18303902B80002327002377BD
:4029000020373A0AA2723A0CE2723A0E22733023002229886772E254002900D07DE704B01CBC90469946A246F0BD3223E15C0429BDD120002A0003A91030FFF713FC002859
:40294000EDD0270020377B79FF2BDAD1BB79012BD7D13733E35C002B68D1FB79012BD0D101213322A154B9780332A154F9780132A154023AA354C4E7A37A607AE27A1B024F
:402980000343120419001300227B0B4312061A433223E15C013BE35C79E73223E15C013BE35C68E720002A0003A91030FFF7DAFB0028B4D02700342320377A79E254A0E734
:4029C00020002A0003A91030FFF7CCFB0028A6D033232700E35C2037002B92D06068002800D18EE73723E35C36229A46036834219C463523E35C0197009363461B68A25C11
:402A00009946615C5346C8477BE7E38B002B00D085E72700203774E73123E15C303B023989B2E183237750E7E18378E7FB79002B00D166E794E7C046306A000010B5002B10
:402A400027D103225D33C154039BDB781340032B20D0022B1DD1039B9B785AB2002A27DB1A0003235900CB18C31819000F24513122400A70039A523312791A70039B9A7945
:402A80007823C15C914200D2C2545E22835C0133835410BD039A92787F2AFAD95621425C1340042213434354039B9A780123D9E71A000223D6E7C04608B4024B9C46043811
:402AC00008BC60473D2A0000F0B5454657464E46E0B40600FF270A25223637400400B84684B06D4429800392002900D181E03023E35C042BF8D8854A9B00D3589F46A27A3E
:402B0000607AE37A120202431B0413431A00237B02271B061343236101223023277267752775E25420002A0003A91030FFF71AFB00285ED03121A368227B1B0A12061A43CC
:402B40001378635451783222A1544246300AA072300CE072300E6272207330220320A0543200042902D1002733202754023BDBB2237222616375237504223023E25404293C
:402B800041D0052900D185E0022900D174E0237F002B00D1AAE0012B00D0A0E0E18B002915D02B88002B24D0039A013989B2501C06E04A1E92B20130002B00D19EE0110094
:402BC000013B9BB20029F4D1E18303902B8000232700237720373A0AA2723A0CE2723A0E22733023002229886772E254002900D07DE704B01CBC90469946A246F0BD3223F5
:402C0000E15C0429BDD120002A0003A91030FFF7A9FA0028EDD0270020377B79E02BDAD1BB79012BD7D13733E35C002B68D1FB79012BD0D101213322A154B9780332A154A3
:402C4000F9780132A154023AA354C4E7A37A607AE27A1B020343120419001300227B0B4312061A433223E15C013BE35C79E73223E15C013BE35C68E720002A0003A9103086
:402C8000FFF770FA0028B4D02700342320377A79E254A0E720002A0003A91030FFF762FA0028A6D033232700E35C2037002B92D06068002800D18EE73723E35C36229A46B6
:402CC000036834219C463523E35C0197009363461B68A25C9946615C5346C8477BE7E38B002B00D085E72700203774E73123E15C303B023989B2E183237750E7E18378E788
:402D0000FB79002B00D166E794E7C046446A0000F8B501234446984601339C46042356464D465F4699460823F0B4050000269B4600213C23513504009A4601202E700029D1
:402D400017D047464A005218A2186E705032D378BB436746BB4303273B404F463B43D370042815D0033501300131C0B22E700029E7D15B46220047466B705032D378BB438F
:402D80006746BB4303273B4057463B43D370E9E725002600643574362868002802D003689B6898470435AE42F6D1002341220121A3540132A3540432A3540132A3543532B9
:402DC000A3542C3AA3540E32A1541A322366A3540132A3543CBC90469946A246AB46F8BD1A4B10B51A003C33083202604360412200238354023283540332835402328354A8
:402E0000C16401210400083283540E3281541A32036683540132835443668366C3660367FFF776FFE16C002909D00A00002378321068002805D001330432102BF8D12000D2
:402E400010BD1E339B005C50F9E7C046FC6A0000F0B54D46444656465F46F0B40400502589B0984689469246FFF752FF635DD920002B06D009B03CBC90469946A246AB4683
:402E8000F0BDE36C00219B461B6858461B689847061E58D04378017887781B020B433F041A003B00C77813433F061F43D720002FE0D0230051331A0A337072701A0C1B0E5E
:402EC000F3704346B37103ABB2700021009300221223E06CFEF738FD3B0A377073703B0C3F0E8046B370F770002809D00D2801D0E1239846236820009B6898474046B9E722
:402F00005B461B6849465E68002253465846B04701006055D4200029ACD06B461B7C092B13D06B46DA7C5223E2546B465A7F5423E2546B469A8A7623E2526B46DA8A7423E3
:402F40000C30E25296E7D62094E70023E06C1A00FEF746FD236820009B689847D12089E710B50400FFF7D4FE5023E06CE15C03689B689847002010BDF0B585B040236A4690
:402F8000D3811733C25C073BC15C2833C35C070001930E23C937009705006B44C06CFEF771FB00280DD02C00743564342068002802D003685B6898470434A542F6D105B03C
:402FC000F0BD6B462C00DB896434002B0CD0260074353068002803D0036839001B6898470436B542F5D1E1E77435DFE730B586240D000121035B89B08B4303535123C45CA1
:40300000013BC15C0023C06C0793059204920393029301930093069520332200FEF754FB09B030BD86221021835A10B58B43835289236C3AC2540E3A0133C25401330B3A44
:40304000C254C368002B08D08C230232C254010004228931FFF7CAFF10BD02228C23C254F5E7C04686220221835A10B58B43835289237D3AC254053A0133C2540332013360
:40308000C254027F0133C254427F0133C254827F0133C254C27F0133C2546F3BC25C7033C2546F3BC25C7033C254010000220133C25489310A32FFF799FF10BD86220821BD
:4030C000835A10B58B43835289236D3AC254153A0133C25406320133C254027F0133C254427F0133C254827F0133C254C27F0133C2546F3BC25C7033C2546F3BC25C70336F
:40310000C25401220133C254002301009232835401328354013283548931883AFFF766FF10BDC0461322892370B5C2540133073AC254060008000D0003F0E6F88B2301301D
:40314000F054002405E02A5D33198C3301341A70E4B2280003F0D8F88442F4D3002334198C342370280003F0CFF83100021D92B230008931FFF73AFF70BDC04686228021D5
:40318000835A10B58B4383528923853AC25403320133C25401330132C2544D398732815401000132835411320333C2546E3A0133C254263A0133C2548931023AFFF716FF02
:4031C00010BDC046862210B51B4B845A234083528923813AC254013A0133C25409320133C2540A780133C2544A780133C2548A780133C254CA780133C2540A790133C2540F
:403200004A790133C25418220133C254B4320133C254CB3A0133C25400230100943283540132835401328354013283548931883AFFF7DCFE10BDC046FDFEFFFFF8B54F4645
:4032400046468023C0B4C35C0400102B3BD8CC4A9B00D3589F468623C35A1B0733D5050022350822C749280003F055F8002813D1422301264427E6540333E0559946E054D0
:403280003533E0541622C0492800984603F043F8002800D0B4E1E655FF23E26F9A431300BA4A934200D19FE14323E35C002B04D07B23E35C002B00D0E0E02000FFF7D2FE86
:4032C0000D228023E2540CBC90469946F8BD8623C25A5207F7D500220021C2524032893002F069FF20004022C930002102F063FF002543230A22E554013BE554013BE55404
:403300003A33E554333BE554013BE554013BE5543633E5540433E254D5E782258422435B01339BB24353825A9A42CCD2002686230322C6520333C25409320133C254010055
:4033400000220133C25489310322FFF74FFE01228023E2546653B6E782228621835A01339BB28352415AC90700D519E18421425A9342A8D99300D318FA225B009BB2D2000A
:40338000934200D82EE1425200238022A3540232A35298E78622835AD90700D493E703208021605460398B43A35289237D3AE25407320133E254210000220133E25489312F
:4033C00003322000FFF712FE7DE78622835A990600D478E740218B4383528923853AC2540F320133C254010000220133C25489310332FFF7FBFD04228023E25463E786236B
:40340000C35A5B0600D45EE7C16800290AD0FFF789FE05228023E25455E78623C35ADB0700D450E706228023E2544CE74823C35C002B03D14333C35C002B50D02000FFF7AA
:403440009DFE07228023E2543DE786238025C35A1D4200D137E702228923C25402320133C254010000220133C25489310332FFF7BDFD7B23E35C002B00D0CEE0082280230F
:40348000E25420E78623C35ADB0700D41BE700227B230100C2541C31FFF794FE09228023E25410E78623C35ADA0500D40BE79B0700D492E011228923C2540D3A0133C254D1
:4034C00002220133C2548C220100438B893183541B0501321B0F8354883AFFF787FD0A228023E254EFE64123C35C002B00D0EAE64333C35C002B00D0E5E64633C35C002B7A
:4035000000D0E0E64833C35C002B00D0DBE6FFF789FD01230B2223727F33E254D3E68623C35ADA0634D45B0700D4CCE680231022C254C8E68623C35A9B0700D4C3E67C23E9
:40354000C35C002B02D001224623C254002386226372A372E372A352773A8033E254B2E68222FA21835A890001339BB28B4205D9002383520A228033C254A4E68352A2E637
:40358000586A00001C6C0000286C00000008250000230372FFF792FD0C228023E25492E600238352803A8033C25422320933C254183A0133C254093A0133C25401320133B3
:4035C000C25404320133C254010000220133C25489310622FFF70AFD75E601001C31FFF7F1FD70E64352CFE613221449280002F092FE002800D057E601227C23E25453E61A
:4036000016220F49280002F086FE00280BD14346E6544B46E655E6543EE62000FFF74EFD0C2363554FE613220649280002F073FE002800D030E64346E6542DE66C6C000023
:40364000406C0000586C00000D22892370B5C254093A0133C25413320133C254017F0133C154427F0133C254827F0133C254C27F0133C2546F3BC25C7033C2546F3BC25CB5
:403680007033C2544E3BC35C0500002B20D092230622C254183BC35C002B3ED1020003009332993302E0110077390978117001329A42F8D129000022A3311A7001338B422D
:4036C000FBD12900280089311A22FFF78FFC70BD06690024300002F017FE9223E85405E0325D2B19933301341A70E4B2300002F00BFE8442F4D300220F2CE2D82B19013433
:403700009333E4B21A70102CDBD02B1901349333E4B21A70102CF1D1D3E703001A3014331A0019787F32013311708342F8D12B009933BFE70E2289230100C2540A3A01336A
:40374000C25402320133C254027F0133C254427F0133C254827F0133C254C27F0133C2546F3BC25C10B57033C2546F3BC25C7033C25489310922FFF739FC10BD0C2289238B
:403780000100C254083A0133C25402320133C254027F0133C254427F0133C254827F0133C254C27F0133C2546F3BC25C10B57033C2546F3BC25C7033C25489310922FFF79A
:4037C00015FC10BD10B586240422035B934303538923803CC4540133C254013A0133C2540133C1540905090F0133C154010001331032C25489310D3AFFF7F8FB10BDC0467B
:40380000F0B544465F4656464D46F0B487B002AA94460E234022502163441A8014320400825C415C7820205C0190200089300090E06CFDF727FFFB2318421ED1723BE25C54
:40384000172A1AD8B5499300CB589F468B23E35C002B00D015E14333E35C002B03D04123E25C002A07D04823E35C002B05D04623E25C002A01D10132E25407B03CBC90460D
:403880009946A246AB46F0BD4323E35C2000002B03D12369002B00D1FBE0FFF7D5FEECE78823E35C042B00D8E8E04321615C002904D14831615C002900D1DFE00023412194
:4038C00063540231635403316354023163543E398033E1548823E254CFE78B23E55C002DCBD0483BE35CEA00039337239846323B9C460733D2B20021994619E0002B24D105
:40390000664606420DD04E4657463E4200D0EDE04826A65D002E04D056464746BE4300D0CAE001310332C9B2D2B28D4200D1B3E0A31818008D300078039E824618008F336D
:403940008E3000781B78002ED8D14826A65D002EE7D066460642DFD1E3E786228023A15A5B000B43A3528B23E35C002B00D081E0F0208D33E35C00011B0203408C20205C1E
:403980000343638381235B001943A15275E7230020008B3391301A0019786F3A013311709842F8D191237D227E21E35CA3541532A25C62541531605C143960547A39114297
:4039C00005D03722934302D04723363AE25486221023A15A0B43A3524FE78B23E35C002B00D04AE786210222635A934304221343635242E78B23E35C002B00D03DE7230092
:403A000020009233B03002E00133984205D019001A7870390A70002AF6D186220823A15A0B43A35229E72000FFF7A8FE25E78E23E35C002B00D020E786220123A05A38491B
:403A40000343A3528C23E35A8B422DD0354A934200D012E7230025008F3395351A0019787B3A013311709D42F8D1212318438623E05202E706228023E254FEE60133DAB29F
:403A800028E7618B2000FFF79DFE10228023E254F3E6FFF74FFEF0E67D225146A1540132A0540132A354E8E68F23E15C4F3BE15441231843A052E0E67D225546A554013288
:403AC000A0540132A354200022004B005B185B001C3222307033D15C117001328242FAD186228023A15A0B43A352C6E67D22A7540132A0540132A3547E3A7B33E2542000BE
:403B000023004A00521852001C3322307032995C197001339842FAD1E2E7C0469C6A00000110000009100000792310B5C35C0400002B01D1002010BDFCF7DAFF236EC01A1E
:403B4000F8D4FCF7D5FF7823E35C181820662000FFF756FE2000FFF771FB2000FFF70CFAE8E7C046F0B583B002AF3C7E6E46A4461C000F34E408E400341BA546202402AE07
:403B800031700905090F21433D7F7170191DB1700912F17000217171614633719BB2B171F571002B18D00021555C7418013125728CB29C42F8D308335A225021825C415C83
:403BC000C06C0096FDF72EFC002802D06420FCF78BFFBD4601B0F0BD0823EDE770B50A250226FF354655013542550C22073DFF3DFF3285540025013285540E2282B006AC75
:403C00002488FF32845424120132845410221C78FF3284545A7888235B00C2540200103BFF3B0A320093FF3201950733FFF79AFF02B070BDF0B583B008AC20CC03272678CC
:403C40000A24FF340755013402550C22033CFF3CFF3284540024013284540E221F78FF3287545A7887235B00C25410232A78FF33C2546A780133C2541223FF33C65401335D
:403C8000C45414230200FF33C4540133C454143BFF3B0A320093FF3201940B33FFF762FF03B0F0BD30B50A240425FF340555013402550C22033CFF3CFF32845400240132AD
:403CC00084540E221D78FF3285545A7887235B00C254102312220225FF33C4540133C454103BFF3BFF328354013285541425133AFF35425501354255020083B00A32009351
:403D0000FF3201940B33FFF72DFF03B030BDC04670B50A240525FF340555013402550C22013CFF3CFF3284540024013284540E221D78FF3285545A7887235B00C254102354
:403D4000FF33C4540133C454122314228A25FF33C4540133C454123BFF3BFF328354123AFF3A6D0042551625A026FF35465501354255020082B00A320093FF3201940D333F
:403D8000FFF7F0FE02B070BD70B50A240626FF340655013402550C22073CFF3CFF3284540024013284540E221E78FF3286545A7887235B00C254102382B0069DFF332A7829
:403DC000C2546A780133C2540200103BFF3B0A320093FF3201940733FFF7C4FE02B070BD70B50A240726FF340655013402550C22073CFF3CFF3284540024013284540E22E6
:403E00001E78FF3286545A7887235B00C254102382B0069DFF332A78C2546A780133C2540200103BFF3B0A320093FF3201940733FFF798FE02B070BD012330B58BB008AD1C
:403E40002B70222200236A446B704B1D01391C78013B147001328B42F9D15123C25C013BC15C00230824C06C0793039303330293F2330193EC3B009306950594049418330C
:403E8000FDF722FC0BB030BD052330B58DB009AC23700B33E3710F3B2372013363721033A3720023CD5CE21801335570062BF9D14B33C25C013BC15C0023C06C06940B249D
:403EC00007930393033302930233019304330093059404941833FDF7F7FB0DB030BDC046F0B55F464D464446564699465423F0B4C25C502792460022C254C56CC15D2B689E
:403F000095B004001B682800904698478346002814D096204000FCF7E7FDE35D00220021E06CFDF75DFD061E10D05B4642469A71236820009B689847300000E0D62015B089
:403F40003CBC90469946A246AB46F0BD5A462B689071E15D1B68280098470028EED04B46837151239C46A4446346E15D0122E06C0393FDF701F9061EDAD17622634BA25A7E
:403F80009A427DD05346002B4AD000239846231D9B460DAB994602AB9C464B46FF2215271B0A1A40464605AD6744904632E0584B2B605B4600226B6000232A77EA83303225
:403FC000AB540132AB540132AB540632AB544B463B7043467B704B461B0CBB704B461B0EFB704B462B612B7A00226B752B754B46AB6150230095E15CE06C3300FDF7B8FC02
:4040000000283BD15E23E25C032A16D80136F6B2B24509D03F4B626F9A42C8D13E4BC7E75E23E25C032A08D850230022E15CE06C0023FDF7D5FCD1267AE75025039B615DC1
:40404000E06CFDF799F8061E00D071E75D235122E35CA25C615DE06CFDF7A4FE061E00D066E764228423E25200231E32A052023AA354237279237F3AE25460E7060057E76E
:4040800074239A22E35A9200934206D0234A934203D0234A934200D074E76420FCF724FD5123E25C013BE15CE06C4F3BFDF77AFE061E00D03CE76369002B02D1238B002BF2
:4040C0000DD074239A222100E35A920014312000934218D0114A934215D0FFF7D5FE51235025E25C615D0023E06CFDF75BFE615D00230022E06CFDF773FC236820009B689F
:404100009847D1201BE7FFF797FEE8E74C050000186C0000E8215C0A0C6C00002F040000D50300000FB4F0B556464D4644465F465C4BF0B49A4601248DB0169D28780028BE
:4041400009D0252811D000F0D3FA68786B1C16931D000028F5D10DB03CBC90469946A246AB46F0BC08BC04B0184768786B1C1693732809D064281CD0632879D0782844D016
:40418000002BE8D01D00DAE716AB9C46661CA400644424682078002805D0013400F0A8FA20780028F9D1AB1CA87816931D003400C5E7631C984616AB9C46A40064442668F4
:4041C0006F46002400E05C46631C30000A219B4601F00CF8300002C70A2100F081FF061EF1D104235B426B449946A4006C4422682C4B043C985C00F07BFAA145F7D1AB1C85
:40420000A87816931D00444699E7631C984616AB9C460F21A400644423686A4600248C4600E00C0060461840611C01C21B09F8D101220A402BD06A4689005350002202342E
:40424000194B9C46042364445B42A4006B446C44994601E02268043C5346985C00F048FAA145F7D1AB1CA87816931D00444666E7631C984616AB9C46A4006444207800F03A
:4042800037FAAB1CA87816931D00444657E7012902D101930224D3E76B46A4001A590C00CEE7C046806C0000FEFFFF3F10B501F043FF03680C2B00D0FEE7FEE710B5C0B2C6
:4042C00000F028F9FEE7C046F8B5104E002E18D000200F4DA9682C686A68002905D00023E758043380C29942FAD1E9680023002903D0D05004339942FBD1013E1035002E0F
:40430000E8D101F01FFFFCF7EDF8FEE7010000001C70000070B5002200230D4C0D480E4D04E00133A1500432302B08D00100032BF7D851590133A1500432302BF6D1FBF76F
:404340006BFE80220123D20511680B43136070BD00000020AD42000000000000F8B55F464D4644465646F0B4040000F03FFBE51E07002D2D3BD8484B1B789C4241D8474BBE
:404380001B78DBB29A46464B1B78DBB29946454B9B465B5D98462F2B01D92A2C4BD83F26414B1A681640B04504D2424605201A6000F012FB3D4B3E4A9C4664442378DBB23F
:4043C000136052463B4B1A604A463B4B1A603B4B18798300181800F0FFFAB04508D95B465A5D314B05201A6000F0F6FA00E001BE380000F0FFFA3CBC90469946A246AB4600
:40440000F8BD2F4B1B789C420CD92E4B1B789C422BD82D4B1B78DBB29A462C4B1B78DBB29946B4E72A4B1B78DBB29A46294B1B78DBB29946ABE719221B4B05201A6000F0D7
:40444000CBFA1A4B1A4A9C4664442378DBB213605246184B1A604A46174B1A60174B18798300181800F0B8FAB9E71B4B1B789C4208D81A4B1B78DBB29A46194B1B78DBB220
:40448000994684E7174B1B78DBB29A46074B1B78DBB299467BE7C046C0F1FF0FC1F1FF0FC2F1FF0F906E00002CFF0B40CDF1FF0F28FF0B401CFF0B4020FF0B40C4000020F1
:4044C000C3F1FF0FC6F1FF0FC7F1FF0FC8F1FF0FC4F1FF0FC5F1FF0FC9F1FF0FCAF1FF0FCBF1FF0FCCF1FF0F1F2800D901BE034B8000C318186819607047C046400000205D
:404500001F2318401E3B8340014A13607047C04600E100E001BE7047F8B5802507002D02A84214D904000B4EB06800F055FA0A4B9C466444AC42F7D8084BFB18DB0BDB033A
:404540006744FF1AF068784300F046FAF8BD014EF8E7C046C40000200080FFFFFF7FFFFF10B5034B1B79584300F036FA10BDC046C400002010B500F039FAC021034A090233
:4045800013680B43136000F035FA10BD00010B4010B5802400F02AFA0749084B0A68E4011A4022430A600A6813408022120213430B6000F01FFA10BD00010B40FF3FFFFF4D
:4045C00070B5050000F012FA104B04001A68C0231B021A4210D0FFF7DBFF0D4A0D4811680D4B28400B40184310601368FFF7C2FF200000F0FFF970BD054A06481168064BDF
:4046000028400B40184310601368F1E700010B4010020B4004040400FBFBFBFF254B10B51A680423134206D0234A11680B4233D10420FFF7C5FF1F4B1A688023DB001A4220
:4046400007D01D4A1168194217D18020C000FFF7B7FF184B1A688023DB021A420CD0164A12681A4204D0154B9B69002B00D098478020C002FFF7A4FF10BD1049CC69106881
:40468000234098431060CA690D4B1340CB614B69002BDAD09847D8E70849CC6910681C40A0431060CA699A430B69CA61002BBFD09847BDE710020B40D8000020EC0300201E
:4046C000FFFBFFFF10B5084C2378002B03D100F01DF8012323708021044A090613680B43136000F05FF810BD0C040020000007400F2204490B681340082BFBD0024B186087
:404700007047C0460802074040020740134A144B10B51A60002301210724124A12481360124A1160124A026012480460124803601248016012490A60124A1360124A13602A
:40474000124A1360124A1360124A1360124A1360124A13601268124B1A8010BD0B000002000007404000074000030740480007400700008004030740100307404400074082
:404780000002074004020740880E0740C80E0740480F0740080F0740C80F0740880F07400E040020064A074B11680B40902109040B431360044B1A88044B1A607047C046E3
:4047C00000000140FFFF0FFF0E040020880F074010B5040000780134002806D00134FFF787FF631E18780028F8D110BD0300102004491B010A688243D2B2184010430860FE
:404800007047C0460003044010B500F0EFF82023084A11780B431370102307490A781A43D2B20A70054A11780B43DBB2137000F0E1F810BD93000F4092000F4090000F401B
:40484000042203490B781A42FCD0024B1870704762000F4043000F40014B1878C0B2704753000F40024B18788006C00F7047C04660000F40054B00201B78DBB29A0702D400
:404880005B0701D4043070470120FCE762000F40054A13789B0605D520210448037813781942FBD17047C04660000F4053000F4010B50C4A13789B0605D520210A480378D5
:4048C00013781942FBD100F091F80122074B19780A4301211A701A788A431A7000F08AF810BDC04660000F4053000F4093000F4070B50B4D2C78002C0ED10F22094B1A70F2
:40490000FFF7D6FF084B1B78084B1B78084B1C70084B1C7001232B70FFF776FF70BDC0461004002083000F4062000F4060000F4082000F4080000F40024B18684006C00FDD
:404940007047C0460403044010B500F04FF80123074A11680B43136000F04CF800F046F88022044B52041A6000F044F810BDC046000005400800054010B50B4B1A78002AF9
:404980000FD180200949800408600C200849094C086001210848016008480460084802601970FFF7D1FF10BD110400200001054024010540FFFF00003801054014010540EF
:4049C00008010540024B18680004000C7047C04608010540000000000230800804D0C0460138FDD1C046C046C0467047EFF3108072B6704780F310887047C04610B504003B
:404A0000034B0833036000F007FB200010BDC046C06E000010B50400FFF7F0FF200000F04FFB200010BDF0B50C0087B019000593070004920F9E00F0B9FA0C9B051E15D04D
:404A400033606B461B7C3371002C09DB0C9B0E9A1C190623A24200D0053BB371002521E00025A31C1ED10123B3711BE00E9A934205D10D99380000F099FA00280FD1B868CA
:404A80000E9A036802920D9A039601920C9A21000092DD69049A059BA847050002E06B461B7C7371280007B0F0BDF7B51C00089B06000F001500934206D1210000F076FA4F
:404AC000002801D0062008E0B068089A036800921E6A2A0023003900B047FEBDF8B507000C0015001E0000F0ACFA002806D1B8682A00036821009F693300B847F8BD0000EB
:404B000010B50400034B0833036000F085FA200010BDC046546F000010B50400FFF7F0FF200000F0CDFA200010BDF0B587B005930C9B04000F0015009A4206D1059900F0A5
:404B400035FA03000620002B2DD1E368DA00A4180393039B002B25D00222E368134204D1039B083C013B0393F3E7012119401A120491002903D0FB1CF2D02B689A58A068BA
:404B80000C99036800911B6AAA181E003900059BB0470328E4D9049B002B04D001231843C0B200E0012007B0F0BD73B5069D0400002905DB511801208D4209D1053007E01C
:404BC00001208E1C04D020680095056A2000A84776BDF0B595B01D9C0B93A368070007910A92DB0601D58368A3601A9B1C9A93420DD11B99380000F0D9F9002807D06B46A0
:404C000028229B181B786371002305932DE10B99380000F0CBF9059000281DD01A9B282223606B469B181B782371079B002B0ADB1A998C461C9963441A000623914200D087
:404C4000053BA371E0E700230593079B023300D00BE10123A37108E1059B0C93079B002B03DB1C9B079A9B1A0C93002306930E9301330D93FB68DB00FB180893FB680993F8
:404C8000099B002B00D1ACE00022012511AB1A715A719A71089BA168D8681192139103120A9A284206D02A000A9D2A431A9D2D68EB580F951A9DEB180C9D002D06D09D4281
:404CC000AD410D9E6D42B54200D185E0022528420DD10798023008D1890706D1099B013B0993089B083B0893CAE702218A4308991C9E886811AD016802961B9E0093039533
:404D00000196CE690B9B0799B04761796A79030011436171AE79062E01D0022E05D1119B23602B79A671237159E022689446069A002A0FD16246002A0CD12A6822602D7922
:404D40002571002A42D0002940D00121BA680A423CD144E06346002B0CD0119B9C4505D111AB22791B79134323712EE0002B07D1002805D1119B002B27D0069B002B24D0E2
:404D8000A579032937D90123194203D00222A368134230D1002D5CD0002E00D1013633006B40DBB2032B46D9032E07D9119B3500236011AB1B792371002306930223A5712B
:404DC0001D4252D1013B1D424FD0069B6279042A00D11AE7069381E701230E937EE7059043E00E9B002B04D00D9B002B01D0099B3FE7069B09E7002D11D1032E06D901252C
:404E00002E42CCD00222BB681342C8D01C9B6246009307991B9B0B98FFF7C7FE0500002EBDD1032D17D901363542B8D00222BB68134210D1B3E700233540EDB22360032D74
:404E400003D90233A371013BDFE60123A3710123BCE70135A0E71C9B119A009307991B9B0B98FFF7A2FE060099E7059815B0F0BDF0B58DB00700069101921C0000F0E1F83F
:404E80000090002800D08BE0A3680293DB0601D5BB680293FB68DB00FD18FB680393039B002B6AD0002308AA1371029A01260A92022208930B93EB681E401A400496059250
:404EC00008D10121029A0A4204D1039B083D013B0393E4E7019A111E08D01A12049B002B02D00B689A580093019B9A18A868069903689B691E0008ABB04700900028E4D078
:404F00000B9B0793082B04D1049B002B01D0AB680B9308AB1B79032B02D9059A002A32D0E16808AE002915D1230007CE07C332681A602379032B33D90222134202D0BB689A
:404F4000013A04E0012213422AD0BB6892181342BBD125E02368089A934202D00023236016E0002B17D1F068082811D008290FD000F01CF800280ED10AE025796B1E9D41F7
:404F8000EBB200930CE00222934308AA1371C7E70223237104E0227933791343237194E700980DB0F0BD70470020704710B5012381420FD04068002302782A2A0AD049686F
:404FC0000B782A3B5A425341C91801F093F943424341DBB2180010BD7FB500246B461C7110230293036815009E6912686B4600940394B0476B461A79062320001340062B7D
:4050000002D1009B01302B6004B070BD009B0620934200D00538704710B50400034B08330360FFF7C0FF200010BDC046986F000010B50400FFF7F0FF200000F041F8200090
:4050400010BD70B515001C00FFF7B0FF002804D00823E360023B2560237170BDF8B514001F00089A069B0500099E934204D10799FFF79CFF00280BD139002800FFF796FFE1
:40508000002806D0069B347133600123B37100E074710020F8BDF8B505000C0016001F00FFF784FF002807D1032F05D8236832005B69290020009847F8BD10B500F008F8A9
:4050C00010B501F065F810BD10B5804701F02CF8024B10B51868FFF7F7FFC046DC000020002243088B4274D303098B425FD3030A8B4244D3030B8B4228D3030C8B420DD3A0
:40510000FF22090212BA030C8B4202D31212090265D0030B8B4219D300E0090AC30B8B4201D3CB03C01A5241830B8B4201D38B03C01A5241430B8B4201D34B03C01A52412A
:40514000030B8B4201D30B03C01A5241C30A8B4201D3CB02C01A5241830A8B4201D38B02C01A5241430A8B4201D34B02C01A5241030A8B4201D30B02C01A5241CDD2C309FA
:405180008B4201D3CB01C01A524183098B4201D38B01C01A524143098B4201D34B01C01A524103098B4201D30B01C01A5241C3088B4201D3CB00C01A524183088B4201D353
:4051C0008B00C01A524143088B4201D34B00C01A5241411A00D20146524110467047FFE701B5002000F006F802BDC0460029F7D076E770477047C04603685A0003D45B00D8
:405200005B08C0187047802212061343F9E7C046F0B556464D465F464446F0B4814683B09246002925D04B1E9B46002701935B46FC18E30F1C194B466410E5005E1930007D
:40524000FFF7DAFF019B8046A3420BD0280008304844FFF7D1FFD04506D80138504509D2671CE4E7504505D9A74202D0631E9B46DDE70026300003B03CBC90469946A246AF
:40528000AB46F0BD012809D0022805D0002801D0002070470248FCE70248FAE70248F8E7AD590000C5590000B959000030B5234B83B005008C1E002B2AD001A9200000E0C4
:4052C00000BF002820D001992200FFF7A1FF041E1AD0FFF791FF6368A864012B10D0201D002B1BDBFFF788FF0023E8642B650368002B17DBFFF780FF2861002003B030BDF0
:40530000002305202B61F9E7002309202B61F5E70B480C49091AC9100191D5E70123E8642B65E4E71801000FFFF7ACFF2861002801D10930E2E70020E0E7C046000000000D
:405340006064000040670000036810B50400DA0705D49B070FD5483000F086FC23685A070FD51A0714D5DB0604D42000D130FF3000F086FC10BD483000F072FC23685A0780
:40538000EFD42000D03000F073FC23681A07EAD420005130FF3000F06FFC2368E3E7C04602680023002A00D0831818007047C046092070477047C04670B504000D0008E009
:4053C0002B6C2A0063612100012023699847082807D1296C2000FFF769FF0028F0D000F0A3FE0728FBD10020296CFFF7E3FF281D00F020FCF0B54F464646C0B4C368334C2A
:405400009946A5448369170005000431402205A8984600F0C7FE002304AC216C28000493FFF744FF39004B1E9941093106000F00002E15D0A36B10216364434639430193F0
:40544000C9B200942B002A000120C847002833D13000F5239B009D440CBC90469946F0BDF022236C52006B6121007CA800F09AFE7CAA29002B69380098478A9B0600636406
:4054800003934346009401932A002B0039000120C847002810D1F0227CA95200200000F081FE082E06D1216C2800FFF7FFFE09270600BDE7072E01D00920CAE70020216CAA
:4054C000FFF778FF05A800F0B5FBC0462CFCFFFF406C704770B5CB6BFAB00B6404000E004022043103A800F05DFE01235B42029306E002AA210023699847050008280AD1CC
:40550000129B200019000193FFF7D0FE0028F0D009207AB070BD02A8FFF716FF062DF7D131002000FFF748FF10B58261DA6BC1601A6419000022FFF75DFF10BD436970B5D0
:405540000B64C36804000D00002B04D00122FFF751FF00F0E9FD0A002369010002209847072807D0082803D129002000FFF724FF00F0DAFD0020296CFFF71CFF281D00F07C
:4055800059FBC046C36810B5002B05D0CB6B00220B64FFF72FFF10BDFFF79CFFFBE7C0467047C046836810B5002B02D001000120984710BD10B5012907D0002907D0033936
:4055C0000224012901D9200010BD0124FBE70224002BF8D10F2AF6D8920080184268029B00241A60EFE7C04600B585B003AB0A00009300210023FFF7DDFF039805B000BD29
:4056000010B5012907D0002907D003390224012901D9200010BD0124FBE70224002BF8D10F2AF6D8029B92001B68801843600024EFE7C04600B585B003AB039200930A0072
:4056400000230021FFF7DCFF05B000BD70B51A4CD36BA544136406000D0019A8111D402200F0A0FD01235B42189314E00C2118A802AAFFF7DFFF290018A8B047002812D1D1
:40568000069B18AA02A9083001939847040005280AD0092807D0289B02A819000193FFF705FE0028E2D0092418A8FFF74DFE200090239B009D4470BDC0FDFFFFF0B55F4682
:4056C00056464D46444693460322F0B41E0013008BB003400193CB6C0D001C1D1B6808940793002E66D11B02079306AB5E731A73019B022B00D16EE02B6DDB0747D400230B
:40570000A846B24602930833034003932668002E00D126E15346022B49D026886588043401232F0099469F4343469B6C0F219C4658466744FFF758FF0021874206D831004F
:405740004B469943CF19B84280414142022301226D002B4032401343012B3ED0002B5AD0022B1CD12368019A5F007F08002A65D1002906D0039A002A00D188E0002F00D19A
:40578000AAE0002B65DB0137BF00E419BEE700230293022E47DDFFF70BFE002849D009200BB03CBC90469946A246AB46F0BD65680834B5E7022E9BDC1A0C1B0407930223A8
:4057C00006A90B73FD334A731A40019B9200A418022B00D090E7AC6B8EE7019B002B3AD1002916D02368DD0F63689A1CD7D0424658320692013300D1B5E0201DFFF7D0FD87
:4058000006AB01002A00404600E000BF002800D0BAE008347AE7019B002B02D0002900D08BE0043472E707A9584600F0CFFA0028B5D1029B002B5DD10820B1E743460D2188
:4058400058461D6AFFF7D0FE854263D02368002B99DA043497E743460D2158461D6AFFF7C3FE8542D5D143469B6A9C42D1D145462000FFF7C1FC0F2102005846FFF7DAFE5C
:4058800058462A000021FFF7D5FE072088E7002F22D058235146434406AABA46251D0026049405911F00914603E004352600A24514D028000697FFF773FD4B4601000022BE
:4058C0004046741C00E000BF0028EED05746059B049C9A46B742B9D1454601E04546049C0D215846FFF780FE069B28626B62AC62062055E70F215846FFF776FE0E21020025
:405900005846FFF797FE5846274A0F21FFF792FE072045E743469B6A9C4297D1434642469F620023D36204331363231D53632368002B23DB0123029325E72000FFF75CFC5E
:40594000454604340600AC63404600E000BF002800D124E7584632000F21FFF76BFE07201EE7564615E70D2158464546FFF73CFE2862069B6B62AC62062011E738000130EF
:4059800080004546201874E707000D2158464546FFF72AFE2862022FEBD1069BEB6243462C336B62E7E7C0460000000010B50023FFF784FE10BDC04610B50123FFF77EFE51
:4059C00010BDC04610B50223FFF778FE10BDC046F0B5474680B40600C2B014001D00012950D0002935D0032909D0042902D1002B00D18CE0022042B004BC9046F0BD032B32
:405A0000F8D11404150C240C2B19102BF2D8082203681A4200D0E8E020AF380000F02EF9B36BE90064009C461A007918631E002C09D00A006546501A405901C2013BF9D244
:405A4000A40022006244B263380000F015F90020D1E70220002BCED1002301271004B56B000C321D39009940084202D029680435116001330432102BF4D10020A304BAD4A9
:405A8000B563B8E71404170C240C012B5ED0052BB0D13B19202BADD80F2F00D887E0A046002C70D1002223009046B26B002B00DC92E020A88446F9006144DB00D318891A7B
:405AC0001068885004329342FAD11A004346002B10D0434658003B00102F00D21023103BD900002369448000D458CC5004338342FAD1D218012D68D0B2630F2F71D9434679
:405B0000002BA4D0684600F0B3F8002073E7102A00D96FE7102203681A424FD120AF380000F0B0F800230120B16B02009A40144203D00D689A00BD5004310133042BF4D104
:405B40003800B16300F09CF8002054E73B19102B00D94FE70F2F00D94CE700239846012233681A420CD0190091430A003160052D4DD00322300093433360483000F072F8B4
:405B80004346002B4BD0042233681A4234D1012D39D00F2F05D820A800F068F84346002B80D0684600F066F81023DB1B7DE7102BD3D91022524290469844D0E793430360AE
:405BC000D130FF3000F05EF8A8E7043220A8B26300F046F800200EE74346002B00D079E788E720A800F040F889E7934303605130FF3000F043F80FE7300093433360D030F4
:405C000000F038F8C3E720A800F02CF8CCE7022330001A433260483000F028F8B0E7012D03D00F2F00D93DE7B5E720A800F01AF838E7C046011C343138C9043B9C461D60C0
:405C4000A646011C20313CC990469946A246AB46011C0831FCC941680068E54600BDC0467047C0467047C0467047C0467047C0467047C0467047C0467047C0467047C04635
:405C80007047C0467047C04601B401A801B585B0FFB408A841464A4653465C4665463EC001A83EC80F98009000230CB401A9FFF711FC109B12B0184701B401A801B585B038
:405CC000FFB408A841464A4653465C4665463EC001A83EC80F98009000230CB401A9FFF72DFC109B12B0184701B401A801B585B0FFB408A841464A4653465C4665463EC041
:405D000001A83EC80F98009000230CB401A9FFF739FC109B12B0184701B401A801B585B0FFB408A841464A4653465C4665463EC001A83EC80F98009000230CB401ABFFF7E7
:405D4000F3FB109B12B0184701B401A801B585B0FFB408A841464A4653465C4665463EC001A83EC80F98009000230CB401AAFFF76DFC109B12B01847027A0300002A04D1A5
:405D8000427AB020002A07D17047013A0272006802021A60000EF7E7013A5A725A68111D1068032259601A72F2E7C04600B585B003AB00930C2200230021FFF7FBFB039841
:405DC00005B000BD10B5FFF7F1FF10BDF0B556465F464D4644460023F0B487B003937F339846703B9946083B07000E009A463000FFF7C2FF0400B02800D1C5E0030042460C
:405E00009343DBB2002B2AD003004A469343DBB2802B00D17FE0902B41D0A02B4ED0B02B60D0C02B00D190E0030052469343DBB2D02B0BD11440802201341203224305237B
:405E400001213800FFF7C4FD0028D0D00924200007B03CBC90469946A246AB46F0BDFF2583001D4005AB9B4600930D220023002138000435FFF79EFB63060CD4059B9C46AC
:405E8000654405955B46009300230D2200213800FFF7B6FBABE7059B5D1B0595F2E7833B03400D2BD2D04A4605AD02400095002300213800FFF77EFB0095E5E7FF22534602
:405EC00012011100834319410A40030702D58023DB011A43002300213800FFF779FD0028B4D184E7B12863D0B22876D0B32800D1A2E0FC230340B42BA8D0534680221C40AD
:405F0000013412032243012301213800FFF760FD00289BD16BE704023000FFF72DFF802520432D02A84291D004010005020C002300213800FFF74CFD002800D086E72C427B
:405F400000D154E70123039351E7C62800D17FE0C72800D190E0030052469343DBB2C02B00D19EE0C82800D1A2E0C92800D06DE73000FFF701FFF02302031B031A404B46FE
:405F80001840013002435AE7039B0024002B00D05DE705AD00950E2200213800FFF70AFB009500230F2200213800FFF729FB4EE73000FFF7E1FE021E00D147E703004946BF
:405FC0008B43DBB2002B00D040E700213800FFF7FFFC002800D039E709E705AB0D22009300219B4638000023FFF7E4FA3000FFF7C3FE424603009343DBB2002B65D0B03C0E
:4060000043461840059BA0409C46604405903000FFF7B2FE424603009343DBB20734002BEED181229200944642461040A040059B63441818059025E73000FFF79DFEF02348
:4060400002031B031A404B461840013002435AE73000FFF791FEF02302031B031A404B46184001300243032303213800FFF7B0FC002800D0EAE6BAE63000FFF77DFE021E12
:4060800000D1E3E6030049468B43DBB2002B00D0DCE604213800FFF79BFC002800D0D5E6A5E64B46A0221C40013412032243DAE73000FFF761FE4B4602009A43D2B210329A
:4060C0001840120301300243B9E60224A9E7C046030000B5DB6C85B05A680800120201921A0001A908324A6003220A72DB794B72FFF76CFE05B000BD10B5FFF763FE806C89
:4061000010BDC04610B5FFF75DFEC26CD3799B000833D01810BDC04610B500F005F8C04610B5FFF7F9FFC04610B5062000F0C2F80120FEF7C3F80000014B18687047C0460B
:40614000400100200E4B70B500251E000D4CE41AA410A54204D0AB00F35898470135F8E700F048FF084B00251E00084CE41AA410A54204D0AB00F35898470135F8E770BDA8
:406180000070000000700000007000000C70000010B5034B0100186800F016F810BDC04640010020002310B59A4203D0CC5CC4540133F9E710BD03008218934202D01970C8
:4061C0000133FAE77047000070B50500002944D00C1F2368002B00DAE418280000F0ADF81E4A13681100002B02D16360146031E0A3420DD92268A018834203D118685B68D5
:406200008218226063600C6024E0A24203D813005A68002AF9D11E689819A0420BD12168711858181960824214D110685268411819605A600EE0A04202D90C232B6009E0E2
:4062400021686018824203D1106852684118216062605C60280000F071F870BD1404002070B504000D001F2904D916230360012040421EE0426C002A04D08B00D2181368E1
:40628000002B08D1200000F031F82A000100200000F01AF80DE00020012B0AD0591C03D117332360013004E00024280014609847200070BD10B5034B01001868FFF7D0FFD1
:4062C00010BDC04640010020002370B5064C050008001100236000F03BF8431C03D12368002B00D02B6070BD1804002010B500F027F810BD02780B78002A03D00130013161
:406300009A42F7D0D01A70470023C25C0133002AFBD1581E7047002330B59A420BD0013AC45CCD5CAC4205D19A4202D00133002CF6D12500631B180030BD7047704700008F
:4063400058220120014B40421A6070471804002058220120014B40421A60704718040020F0800181B0AB08B10000000080060181B0B0ABF00000000080060181B0B0ABF065
:406380000000000080030181B0B0AB1000000000800A0181B0B0ABF00000000080020181B0B0ABF00000000080180181B0B0AB300000000080020181B0B0ABF00000000063
:4063C00080120181B0B0ABF00000000030800181B0AB08B10000000080030181B0B0AB700000000080030181B0B0AB7000000000F0800181B0AB08B1000000008008018138
:40640000B0B0ABF00000000030800181B0AB08B10000000080060181B0B0ABF00000000080140181B0B0ABF00000000074B20181B0AB308000000000800A0181B0B0ABF04D
:40644000000000003F010181B0AB10800000000080060181B0B0ABF000000000000000001C9EFF7FB0B0A880389EFF7FB0AA15808C9EFF7FB0B0B080949EFF7FB0A80380A6
:40648000D89EFF7FB0B0A880DC9EFF7FB0B0AA80049FFF7FB0B0A880B89FFF7FB0B0AA8044A0FF7FBCFEFF7FC8A5FF7F0100000038A6FF7FB0B0A88060A6FF7F01000000E7
:4064C000E4A6FF7FB0B0AA800CA7FF7FB0B0A88050A7FF7FB0B0AA8098A7FF7F01000000ECACFF7FAB08B18094ADFF7F80FEFF7F34AFFF7FB0AA038060AFFF7FAB708080F9
:40650000FCAFFF7F74FEFF7F7CB1FF7F78FEFF7FB8B1FF7F7CFEFF7F24B3FF7F80FEFF7F28B4FF7FB0A9088048B4FF7F7CFEFF7FB0B4FF7FB0A80780D8B4FF7F78FEFF7F07
:4065400088B6FF7F7CFEFF7F5CB8FF7FB0A8078078B8FF7F78FEFF7F0CBAFF7F0100000054BAFF7FB0B0AA8028BBFF7F0100000014BCFF7FB0A801803CBCFF7FB0AA01801F
:40658000DCBCFF7FB0B0A880F8BCFF7F010000005CBDFF7FB0A803808CBDFF7FB0AA018008BFFF7FB0AB0280C8C1FF7F0100000044C2FF7F24FEFF7F84C4FF7F01000000E1
:4065C00008C5FF7F20FEFF7F48C7FF7F24FEFF7F10C8FF7FB0B0A88078C8FF7F20FEFF7F80C9FF7FB0B0A88090C9FF7FB0AB0480FCC9FF7FB0A908802CCAFF7FB0B0A8802A
:4066000024CBFF7FB0B0AA8074CBFF7FB0B0A8802CCCFF7FF4FDFF7F30D0FF7FB0B0AA8014D1FF7FB0B0A880D8D1FF7FE8FDFF7FF8D4FF7FB0B0A8802CD5FF7FAB009780A9
:406640009CD5FF7FB0AA0180ECD5FF7FB0AB028054D6FF7FB0A90280B8D6FF7FB0AA0180D8D7FF7FB0A90A8020D8FF7FB0A90C8070D8FF7FACFDFF7FACDAFF7F010000006D
:406680002CECFF7FB0A90280C0ECFF7FB0B0A88010EDFF7F0100000020EDFF7FB0B0AA8054EDFF7F88FDFF7F28EEFF7F0100000024EEFF7FAA3F398070EEFF7FB0B0A88039
:4066C0007CEEFF7FB0B0AA80BCEEFF7FB0B0A880D0EEFF7F01000000CCEEFF7FB0B0A880D4EEFF7F0100000064EFFF7FAA0FB280CCEFFF7F44FDFF7FB4F2FF7FB0B0A880DA
:40670000D0F2FF7F40FDFF7F2CF5FF7F010000009CF6FF7F00840480ACF6FF7FB0B0A880ACF6FF7F2CFDFF7FA8F9FF7F00840480C8F9FF7FB0B0A880E0F9FF7F01000000F1
:40674000395053345061727365720000A06F00004067000035505334425400005C6F0000546700000000000002000000EC690000020000004C670000022C00000000000084
:406780004C670000BB500000000000005C670000A9240000B52100005D220000852100007D020000590300000D03000095020000A1020000D4FFFFFF5C670000FD020000D8
:4067C0005465726D696E616C20436F756E742E005374617274696E6720426C7565746F6F746820546573742E0D0A00000D0A4F534320646964206E6F742073746172740DC6
:406800000A00000055534220496E697469616C697A65642E0D0A00000D0A5053000000000D0A547261696E676C6500000D0A436972636C65000000000D0A43726F737300F8
:406840000D0A537175617265000000000D0A5570000000000D0A5269676874000D0A446F776E00000D0A4C65667400000D0A4C31000000000D0A4C33000000000D0A52318A
:40688000000000000D0A5233000000000D0A5368617265000D0A4F7074696F6E730000000D0A546F7563687061640000580000002564000009590000090000000D0A4C65CC
:4068C0006674486174583A2000000000094C656674486174593A2000095269676874486174583A2000000000095269676874486174593A20000000000D0A4C323A200000EF
:406900000952323A2000000030303030000000003135555342446576696365436F6E666967000000A06F000010690000313141646472657373506F6F6C000000A06F000061
:406940002C690000313541646472657373506F6F6C496D706C494C683136454500000000C86E0000446900003C6900000000000060690000710C0000190B0000650F0000D6
:40698000000102030C0D0E0F0A0B080907060504101100007623000076230000A0230000C2230000F223000004240000222400006E2400003A2300007A2300000000000055
:4069C000EC690000A9240000B52100005D220000852100007D020000792100007D210000812100003542544849440000C86E0000E46900000C6A00003136426C7565746FB6
:406A00006F7468536572766963650000A06F0000F8690000000000000C6A0000BB500000BB500000BB500000BB500000BB5000002A280000502800009A29000078290000EF
:406A40002A290000FE2A0000242B00006E2C00004C2C0000FE2B00001A3300005833000094330000CA330000FE3300001A3400002C3400004A34000084340000A434000088
:406A8000E63400001E3500005632000034350000C632000060350000CE3200007A380000A0380000DA3800005A3900008E390000DA3900004C380000F43900007A3800007F
:406AC0007A3800007A3800007A3800007A3800007A3800002E3A00007A3800007A3800007A3800007A3800007A3800007A3800007A38000088380000263A000000000000B6
:406B0000446B0000E13E0000512E0000612F0000293B000071270000D90A00008D27000081270000E50A0000792700003D2A0000FCFFFFFF446B0000B92A000033425444AF
:406B4000000000005C6F00003C6B000000000000020000002469000002000000946B0000020400000302010031335553425265616450617273657200A06F0000686B0000EE
:406B80003137557362436F6E666967587472616374657200A06F0000806B00003136436F6E66696744657363506172736572494C68323535454C6831454C6831454C6837E0
:406BC00045450000C86E00009C6B0000786B00003136436F6E66696744657363506172736572494C68323234454C6831454C6831454C683745450000C86E0000D06B00002E
:406C0000786B000000000000C46B0000F527000000000000F86B0000C92A00004E696E74656E646F000000004E696E74656E646F2052564C2D434E542D30312D54520000CB
:406C40004E696E74656E646F2052564C2D434E542D30312D554300004E696E74656E646F2052564C2D5742432D303100576972656C65737320436F6E74726F6C6C657200E0
:406C8000303132333435363738396162636465660000000000300F40800200330F40000100400F4000040000071A38000418000201020018049C80035618090280C10438B0
:406CC0008400000084330044841A0000001800000A0010006082000008E07F0F020080130800000A000051006405100002DEFCB02FFFFFFF2200F008040000000000022480
:406D000004040404000000010000C00040011011C0010011400140010000000000000000000000000000000001000F4031300F401C310F4003320F4043330F4002400F4056
:406D400002410F4008430F4002600F40830F0194028003690410050E06600C020E0D10011232148D1555164017AA18CD19201BD01CCD1D331FC420CD244D268028122A6403
:406D80002C722E08300F3280330F347035F039083A223B203E045440580459045B045F019202A203AA03AC01B003B603D804DF0100400102024003200AA40B010E801109F8
:406DC000120813401582172018501B201E801F80210422203268390A60106250C00DC21FC4DFCC0ECE03D80E54095B045F010002014003280A240B4111011209184019107E
:406E00001A011B8820022141224823602A422B203002324839153B404008410143804801490A4A0852515C405D085E015F1062206702680269556A247202730180028104BA
:406E400088088A408B188D108F01958396A497419D029E109F20A220A320A504A608AF80C00FC20FC40BCA0BCC0BCE0FD00DD20CD6F0D8146302D640AF01EE1005085C8030
:406E800088808908C004D604E004E20110011101030405060708090A0B0C0E0F101112131415161718191B1C1D1E1F2021222325262728292A2B2E2F3031323334350000C1
:406EC00000000000EC6E0000FD490000154A0000A94F0000A94F000097500000D94F0000DD4A0000274A0000AB4A0000C86E0000F86E0000C46F00004E31305F5F63787878
:406F0000616269763132305F5F73695F636C6173735F747970655F696E666F4500000000C86E00002C6F0000C46F00004E31305F5F637878616269763132315F5F766D6998
:406F40005F636C6173735F747970655F696E666F4500000000000000206F0000014B0000194B0000A94F0000A94F000097500000D94F0000714E0000D34B00002B4B00009A
:406F8000A06F0000886F0000537439747970655F696E666F0000000000000000C46F00001950000031500000A94F0000A94F000097500000D94F0000435000005D500000A2
:406FC0000D500000C86E0000D06F0000806F00004E31305F5F637878616269763131375F5F636C6173735F747970655F696E666F45004300F8B5C046F8BC08BC9E46704787
:4070000045020000710A000015430000F8B5C046F8BC08BC9E4670471D02000030700000C000002088000000D8020000000000000000000001000000180000000000E02E48
:40704000C05D000000366E0104040400296100000000000000000000000000000000000000000000000000000000000000000000F26F000000000000000000000000000057
:40708000000000000000000000000000000000000000000000000000000000000000000000000000000000000000000000000000E0000020000000000000000000000000D0
:4070C0000000000000000000000000000000000000000000000000000000000000000000000000000000000000000000000000000000000000000000000000000000000090
:40710000000000000000000000000000000000000000000000000000000000000000000000000000000000000000000000000000000000000000000000000000000000004F
:40714000000000000000000000000000000000000000000000000000000000000000000000000000000000000000000000000000000000000000000000000000000000000F
:4071800000000000000000000000000000000000000000000000000000000000000000000000000000000000000000000000000000000000000000000000000000000000CF
:0200000490303A
:02000000610C91
:0200000490402A
:200000000000000000000000000000000000000000000000000000000000000000000000E0
:0200000490501A
:0C000000000204C81193110104F0729F6B
:0200000490600A
:0100000001FE
:00000001FF